{
  "contractName": "Counter",
  "abi": [
    {
      "inputs": [],
      "name": "count",
      "outputs": [
        {
          "internalType": "uint256",
          "name": "",
          "type": "uint256"
        }
      ],
      "stateMutability": "view",
      "type": "function",
      "constant": true
    },
    {
      "inputs": [],
      "name": "increaseCount",
      "outputs": [
        {
          "internalType": "uint256",
          "name": "",
          "type": "uint256"
        }
      ],
      "stateMutability": "nonpayable",
      "type": "function"
    },
    {
      "inputs": [],
      "name": "decreaseCount",
      "outputs": [
        {
          "internalType": "uint256",
          "name": "",
          "type": "uint256"
        }
      ],
      "stateMutability": "nonpayable",
      "type": "function"
    },
    {
      "inputs": [],
      "name": "getCount",
      "outputs": [
        {
          "internalType": "uint256",
          "name": "",
          "type": "uint256"
        }
      ],
      "stateMutability": "view",
      "type": "function",
      "constant": true
    }
  ],
  "bytecode": "0x608060405234801561001057600080fd5b50610145806100206000396000f3fe608060405234801561001057600080fd5b506004361061004c5760003560e01c806306661abd14610051578063a87d942c1461006f578063abd1b73d1461008d578063e834cbb3146100ab575b600080fd5b6100596100c9565b6040518082815260200191505060405180910390f35b6100776100cf565b6040518082815260200191505060405180910390f35b6100956100d8565b6040518082815260200191505060405180910390f35b6100b36100f3565b6040518082815260200191505060405180910390f35b60005481565b60008054905090565b60008060008154809291906001019190505550600054905090565b600080600081548092919060019003919050555060005490509056fea2646970667358221220ca689ab9ce1c4dbe4ab0e91b52eeff2a88ca18fde648d963f016fa1ba599f44864736f6c63430007060033",
  "immutableReferences": {},
  "source": "//SPDX-License-Identifier: UNLICENSED\npragma solidity ^0.7.0;\n\ncontract Counter {\n    uint public count;\n    function increaseCount() public returns(uint){\n        count++;\n        return count;\n    }\n\n    function decreaseCount() public returns(uint){\n        count--;\n        return count;\n    }\n\n    function getCount() public view returns(uint){\n        return count;\n    }\n}",
  "sourcePath": "/home/pranshu_ubuntu/Documents/counterDapp-GSN/contracts/Counter.sol",
  "compiler": {
    "name": "solc",
    "version": "0.7.6+commit.7338295f.Emscripten.clang"
  },
  "schemaVersion": "3.3.2",
  "updatedAt": "2020-12-22T13:10:35.107Z",
  "networkType": "ethereum",
  "devdoc": {
    "kind": "dev",
    "methods": {},
    "version": 1
  },
  "userdoc": {
    "kind": "user",
    "methods": {},
    "version": 1
  }
}